:1000000009C00EC00DC00CC00BC00AC009C008C09A
:100010005AC006C011241FBECFE9CDBF68D0C9C0E9
:10002000EFCF15BC87B986B1806C86B93699FECF03
:1000300084B195B1379821E025BD0895F894A8952D
:1000400014BE88E981BD81E481BD7894089598E06B
:10005000B99A21EE2A95F1F7B998EFEDEA95F1F703
:1000600080FF06C0EFE4F1E03197F1F700C0000037
:100070008695915069F70895CF93C82F8FE186BF79
:1000800087E089BDB99A8BE89AE00197F1F700C043
:100090000000B99885E495E00197F1F700C00000F1
:1000A00084E0D5DF8BEFD3DF8C2FD1DF8C2F8095D1
:1000B000CEDFB99A91EE9A95F1F7B9988FED8A95BE
:1000C000F1F7CF9108951F920F920FB60F9211245E
:1000D0008F930FB6F894A89581B5886181BD11BC46
:1000E0000FBE8F910F900FBE0F901F901895A6DF37
:1000F00083E28FBD89E083BF83E086B980E888B959
:100100008FE184BB85B7877E806185BF83E089DF0F
:10011000EC0182E086DF7C01409718F460E1E62E76
:10012000F12C00E050E1D52E18E088DF85B7806221
:1001300085BF889585B78F7D85BFCE0135E0880F57
:10014000991F3A95E1F79C012C1B3D0BE90183E0D7
:1001500068DF8C0F9D1FEC0145E0D695C7954A9549
:10016000E1F7DA94D1100AC082E05BDF7C0120E184
:10017000D22E409718F490E1E92EF12C1150A9F6F7
:10018000EC16FD0620F483E077DF0F5F0AC0002342
:1001900059F2C7014097C817D90730F682E06CDFE3
:1001A000015083E03EDF8C0F9D1FEC01D695C79573
:0601B000BBCFF894FFCF65
:00000001FF
